{
  "_format": "hh3-artifact-1",
  "contractName": "SampleERC721Receiver",
  "sourceName": "contracts/SampleERC721Receiver.sol",
  "abi": [
    {
      "inputs": [
        {
          "internalType": "address",
          "name": "initialOwner",
          "type": "address"
        }
      ],
      "stateMutability": "nonpayable",
      "type": "constructor"
    },
    {
      "inputs": [
        {
          "internalType": "address",
          "name": "owner",
          "type": "address"
        }
      ],
      "name": "OwnableInvalidOwner",
      "type": "error"
    },
    {
      "inputs": [
        {
          "internalType": "address",
          "name": "account",
          "type": "address"
        }
      ],
      "name": "OwnableUnauthorizedAccount",
      "type": "error"
    },
    {
      "anonymous": false,
      "inputs": [
        {
          "indexed": true,
          "internalType": "address",
          "name": "previousOwner",
          "type": "address"
        },
        {
          "indexed": true,
          "internalType": "address",
          "name": "newOwner",
          "type": "address"
        }
      ],
      "name": "OwnershipTransferred",
      "type": "event"
    },
    {
      "inputs": [
        {
          "internalType": "address",
          "name": "token",
          "type": "address"
        },
        {
          "internalType": "uint256",
          "name": "tokenId",
          "type": "uint256"
        }
      ],
      "name": "deposit",
      "outputs": [],
      "stateMutability": "nonpayable",
      "type": "function"
    },
    {
      "inputs": [
        {
          "internalType": "address",
          "name": "",
          "type": "address"
        },
        {
          "internalType": "address",
          "name": "",
          "type": "address"
        },
        {
          "internalType": "uint256",
          "name": "",
          "type": "uint256"
        },
        {
          "internalType": "bytes",
          "name": "",
          "type": "bytes"
        }
      ],
      "name": "onERC721Received",
      "outputs": [
        {
          "internalType": "bytes4",
          "name": "",
          "type": "bytes4"
        }
      ],
      "stateMutability": "nonpayable",
      "type": "function"
    },
    {
      "inputs": [],
      "name": "owner",
      "outputs": [
        {
          "internalType": "address",
          "name": "",
          "type": "address"
        }
      ],
      "stateMutability": "view",
      "type": "function"
    },
    {
      "inputs": [],
      "name": "renounceOwnership",
      "outputs": [],
      "stateMutability": "nonpayable",
      "type": "function"
    },
    {
      "inputs": [
        {
          "internalType": "address",
          "name": "newOwner",
          "type": "address"
        }
      ],
      "name": "transferOwnership",
      "outputs": [],
      "stateMutability": "nonpayable",
      "type": "function"
    },
    {
      "inputs": [
        {
          "internalType": "address",
          "name": "token",
          "type": "address"
        },
        {
          "internalType": "address",
          "name": "to",
          "type": "address"
        },
        {
          "internalType": "uint256",
          "name": "tokenId",
          "type": "uint256"
        }
      ],
      "name": "withdraw",
      "outputs": [],
      "stateMutability": "nonpayable",
      "type": "function"
    }
  ],
  "bytecode": "0x608060405234801561000f575f5ffd5b50604051610a54380380610a54833981810160405281019061003191906101d7565b805f73ffffffffffffffffffffffffffffffffffffffff168173ffffffffffffffffffffffffffffffffffffffff16036100a2575f6040517f1e4fbdf70000000000000000000000000000000000000000000000000000000081526004016100999190610211565b60405180910390fd5b6100b1816100b860201b60201c565b505061022a565b5f5f5f9054906101000a900473ffffffffffffffffffffffffffffffffffffffff169050815f5f6101000a81548173ffffffffffffffffffffffffffffffffffffffff021916908373ffffffffffffffffffffffffffffffffffffffff1602179055508173ffffffffffffffffffffffffffffffffffffffff168173ffffffffffffffffffffffffffffffffffffffff167f8be0079c531659141344cd1fd0a4f28419497f9722a3daafe3b4186f6b6457e060405160405180910390a35050565b5f5ffd5b5f73ffffffffffffffffffffffffffffffffffffffff82169050919050565b5f6101a68261017d565b9050919050565b6101b68161019c565b81146101c0575f5ffd5b50565b5f815190506101d1816101ad565b92915050565b5f602082840312156101ec576101eb610179565b5b5f6101f9848285016101c3565b91505092915050565b61020b8161019c565b82525050565b5f6020820190506102245f830184610202565b92915050565b61081d806102375f395ff3fe608060405234801561000f575f5ffd5b5060043610610060575f3560e01c8063150b7a021461006457806347e7ef2414610094578063715018a6146100b05780638da5cb5b146100ba578063d9caed12146100d8578063f2fde38b146100f4575b5f5ffd5b61007e600480360381019061007991906105ef565b610110565b60405161008b91906106a9565b60405180910390f35b6100ae60048036038101906100a991906106c2565b610123565b005b6100b8610191565b005b6100c26101a4565b6040516100cf919061070f565b60405180910390f35b6100f260048036038101906100ed9190610728565b6101cb565b005b61010e60048036038101906101099190610778565b610242565b005b5f63150b7a0260e01b9050949350505050565b8173ffffffffffffffffffffffffffffffffffffffff166342842e0e3330846040518463ffffffff1660e01b8152600401610160939291906107b2565b5f604051808303815f87803b158015610177575f5ffd5b505af1158015610189573d5f5f3e3d5ffd5b505050505050565b6101996102c6565b6101a25f61034d565b565b5f5f5f9054906101000a900473ffffffffffffffffffffffffffffffffffffffff16905090565b6101d36102c6565b8273ffffffffffffffffffffffffffffffffffffffff166342842e0e3084846040518463ffffffff1660e01b8152600401610210939291906107b2565b5f604051808303815f87803b158015610227575f5ffd5b505af1158015610239573d5f5f3e3d5ffd5b50505050505050565b61024a6102c6565b5f73ffffffffffffffffffffffffffffffffffffffff168173ffffffffffffffffffffffffffffffffffffffff16036102ba575f6040517f1e4fbdf70000000000000000000000000000000000000000000000000000000081526004016102b1919061070f565b60405180910390fd5b6102c38161034d565b50565b6102ce61040e565b73ffffffffffffffffffffffffffffffffffffffff166102ec6101a4565b73ffffffffffffffffffffffffffffffffffffffff161461034b5761030f61040e565b6040517f118cdaa7000000000000000000000000000000000000000000000000000000008152600401610342919061070f565b60405180910390fd5b565b5f5f5f9054906101000a900473ffffffffffffffffffffffffffffffffffffffff169050815f5f6101000a81548173ffffffffffffffffffffffffffffffffffffffff021916908373ffffffffffffffffffffffffffffffffffffffff1602179055508173ffffffffffffffffffffffffffffffffffffffff168173ffffffffffffffffffffffffffffffffffffffff167f8be0079c531659141344cd1fd0a4f28419497f9722a3daafe3b4186f6b6457e060405160405180910390a35050565b5f33905090565b5f604051905090565b5f5ffd5b5f5ffd5b5f73ffffffffffffffffffffffffffffffffffffffff82169050919050565b5f61044f82610426565b9050919050565b61045f81610445565b8114610469575f5ffd5b50565b5f8135905061047a81610456565b92915050565b5f819050919050565b61049281610480565b811461049c575f5ffd5b50565b5f813590506104ad81610489565b92915050565b5f5ffd5b5f5ffd5b5f601f19601f8301169050919050565b7f4e487b71000000000000000000000000000000000000000000000000000000005f52604160045260245ffd5b610501826104bb565b810181811067ffffffffffffffff821117156105205761051f6104cb565b5b80604052505050565b5f610532610415565b905061053e82826104f8565b919050565b5f67ffffffffffffffff82111561055d5761055c6104cb565b5b610566826104bb565b9050602081019050919050565b828183375f83830152505050565b5f61059361058e84610543565b610529565b9050828152602081018484840111156105af576105ae6104b7565b5b6105ba848285610573565b509392505050565b5f82601f8301126105d6576105d56104b3565b5b81356105e6848260208601610581565b91505092915050565b5f5f5f5f608085870312156106075761060661041e565b5b5f6106148782880161046c565b94505060206106258782880161046c565b93505060406106368782880161049f565b925050606085013567ffffffffffffffff81111561065757610656610422565b5b610663878288016105c2565b91505092959194509250565b5f7fffffffff0000000000000000000000000000000000000000000000000000000082169050919050565b6106a38161066f565b82525050565b5f6020820190506106bc5f83018461069a565b92915050565b5f5f604083850312156106d8576106d761041e565b5b5f6106e58582860161046c565b92505060206106f68582860161049f565b9150509250929050565b61070981610445565b82525050565b5f6020820190506107225f830184610700565b92915050565b5f5f5f6060848603121561073f5761073e61041e565b5b5f61074c8682870161046c565b935050602061075d8682870161046c565b925050604061076e8682870161049f565b9150509250925092565b5f6020828403121561078d5761078c61041e565b5b5f61079a8482850161046c565b91505092915050565b6107ac81610480565b82525050565b5f6060820190506107c55f830186610700565b6107d26020830185610700565b6107df60408301846107a3565b94935050505056fea26469706673582212203f9bb4f80d75871267f20ec7d18f726c175d3f162a3c9182a57177dc465258a764736f6c634300081c0033",
  "linkReferences": {},
  "deployedLinkReferences": {},
  "immutableReferences": {},
  "inputSourceName": "project/contracts/SampleERC721Receiver.sol",
  "buildInfoId": "solc-0_8_28-8896fe164fb094946cf9f1942503b8e69795f64e"
}