{
  "_format": "hh3-artifact-1",
  "contractName": "SampleERC1155Receiver",
  "sourceName": "contracts/SampleERC1155Receiver.sol",
  "abi": [
    {
      "inputs": [
        {
          "internalType": "address",
          "name": "initialOwner",
          "type": "address"
        }
      ],
      "stateMutability": "nonpayable",
      "type": "constructor"
    },
    {
      "inputs": [
        {
          "internalType": "address",
          "name": "owner",
          "type": "address"
        }
      ],
      "name": "OwnableInvalidOwner",
      "type": "error"
    },
    {
      "inputs": [
        {
          "internalType": "address",
          "name": "account",
          "type": "address"
        }
      ],
      "name": "OwnableUnauthorizedAccount",
      "type": "error"
    },
    {
      "anonymous": false,
      "inputs": [
        {
          "indexed": true,
          "internalType": "address",
          "name": "previousOwner",
          "type": "address"
        },
        {
          "indexed": true,
          "internalType": "address",
          "name": "newOwner",
          "type": "address"
        }
      ],
      "name": "OwnershipTransferred",
      "type": "event"
    },
    {
      "inputs": [
        {
          "internalType": "address",
          "name": "token",
          "type": "address"
        },
        {
          "internalType": "uint256",
          "name": "id",
          "type": "uint256"
        },
        {
          "internalType": "uint256",
          "name": "amount",
          "type": "uint256"
        },
        {
          "internalType": "bytes",
          "name": "data",
          "type": "bytes"
        }
      ],
      "name": "deposit",
      "outputs": [],
      "stateMutability": "nonpayable",
      "type": "function"
    },
    {
      "inputs": [
        {
          "internalType": "address",
          "name": "token",
          "type": "address"
        },
        {
          "internalType": "uint256[]",
          "name": "ids",
          "type": "uint256[]"
        },
        {
          "internalType": "uint256[]",
          "name": "amounts",
          "type": "uint256[]"
        },
        {
          "internalType": "bytes",
          "name": "data",
          "type": "bytes"
        }
      ],
      "name": "depositBatch",
      "outputs": [],
      "stateMutability": "nonpayable",
      "type": "function"
    },
    {
      "inputs": [
        {
          "internalType": "address",
          "name": "",
          "type": "address"
        },
        {
          "internalType": "address",
          "name": "",
          "type": "address"
        },
        {
          "internalType": "uint256[]",
          "name": "",
          "type": "uint256[]"
        },
        {
          "internalType": "uint256[]",
          "name": "",
          "type": "uint256[]"
        },
        {
          "internalType": "bytes",
          "name": "",
          "type": "bytes"
        }
      ],
      "name": "onERC1155BatchReceived",
      "outputs": [
        {
          "internalType": "bytes4",
          "name": "",
          "type": "bytes4"
        }
      ],
      "stateMutability": "nonpayable",
      "type": "function"
    },
    {
      "inputs": [
        {
          "internalType": "address",
          "name": "",
          "type": "address"
        },
        {
          "internalType": "address",
          "name": "",
          "type": "address"
        },
        {
          "internalType": "uint256",
          "name": "",
          "type": "uint256"
        },
        {
          "internalType": "uint256",
          "name": "",
          "type": "uint256"
        },
        {
          "internalType": "bytes",
          "name": "",
          "type": "bytes"
        }
      ],
      "name": "onERC1155Received",
      "outputs": [
        {
          "internalType": "bytes4",
          "name": "",
          "type": "bytes4"
        }
      ],
      "stateMutability": "nonpayable",
      "type": "function"
    },
    {
      "inputs": [],
      "name": "owner",
      "outputs": [
        {
          "internalType": "address",
          "name": "",
          "type": "address"
        }
      ],
      "stateMutability": "view",
      "type": "function"
    },
    {
      "inputs": [],
      "name": "renounceOwnership",
      "outputs": [],
      "stateMutability": "nonpayable",
      "type": "function"
    },
    {
      "inputs": [
        {
          "internalType": "bytes4",
          "name": "interfaceId",
          "type": "bytes4"
        }
      ],
      "name": "supportsInterface",
      "outputs": [
        {
          "internalType": "bool",
          "name": "",
          "type": "bool"
        }
      ],
      "stateMutability": "view",
      "type": "function"
    },
    {
      "inputs": [
        {
          "internalType": "address",
          "name": "newOwner",
          "type": "address"
        }
      ],
      "name": "transferOwnership",
      "outputs": [],
      "stateMutability": "nonpayable",
      "type": "function"
    },
    {
      "inputs": [
        {
          "internalType": "address",
          "name": "token",
          "type": "address"
        },
        {
          "internalType": "address",
          "name": "to",
          "type": "address"
        },
        {
          "internalType": "uint256",
          "name": "id",
          "type": "uint256"
        },
        {
          "internalType": "uint256",
          "name": "amount",
          "type": "uint256"
        },
        {
          "internalType": "bytes",
          "name": "data",
          "type": "bytes"
        }
      ],
      "name": "withdraw",
      "outputs": [],
      "stateMutability": "nonpayable",
      "type": "function"
    },
    {
      "inputs": [
        {
          "internalType": "address",
          "name": "token",
          "type": "address"
        },
        {
          "internalType": "address",
          "name": "to",
          "type": "address"
        },
        {
          "internalType": "uint256[]",
          "name": "ids",
          "type": "uint256[]"
        },
        {
          "internalType": "uint256[]",
          "name": "amounts",
          "type": "uint256[]"
        },
        {
          "internalType": "bytes",
          "name": "data",
          "type": "bytes"
        }
      ],
      "name": "withdrawBatch",
      "outputs": [],
      "stateMutability": "nonpayable",
      "type": "function"
    }
  ],
  "bytecode": "0x608060405234801561000f575f5ffd5b506040516111a13803806111a1833981810160405281019061003191906101d7565b805f73ffffffffffffffffffffffffffffffffffffffff168173ffffffffffffffffffffffffffffffffffffffff16036100a2575f6040517f1e4fbdf70000000000000000000000000000000000000000000000000000000081526004016100999190610211565b60405180910390fd5b6100b1816100b860201b60201c565b505061022a565b5f5f5f9054906101000a900473ffffffffffffffffffffffffffffffffffffffff169050815f5f6101000a81548173ffffffffffffffffffffffffffffffffffffffff021916908373ffffffffffffffffffffffffffffffffffffffff1602179055508173ffffffffffffffffffffffffffffffffffffffff168173ffffffffffffffffffffffffffffffffffffffff167f8be0079c531659141344cd1fd0a4f28419497f9722a3daafe3b4186f6b6457e060405160405180910390a35050565b5f5ffd5b5f73ffffffffffffffffffffffffffffffffffffffff82169050919050565b5f6101a68261017d565b9050919050565b6101b68161019c565b81146101c0575f5ffd5b50565b5f815190506101d1816101ad565b92915050565b5f602082840312156101ec576101eb610179565b5b5f6101f9848285016101c3565b91505092915050565b61020b8161019c565b82525050565b5f6020820190506102245f830184610202565b92915050565b610f6a806102375f395ff3fe608060405234801561000f575f5ffd5b506004361061009c575f3560e01c80639e48ff5a116100645780639e48ff5a14610130578063bc197c811461014c578063f13df74d1461017c578063f23a6e6114610198578063f2fde38b146101c85761009c565b806301ffc9a7146100a0578063074540da146100d05780634f70743b146100ec578063715018a6146101085780638da5cb5b14610112575b5f5ffd5b6100ba60048036038101906100b59190610754565b6101e4565b6040516100c79190610799565b60405180910390f35b6100ea60048036038101906100e5919061097b565b6101f5565b005b61010660048036038101906101019190610ad2565b610272565b005b6101106102e6565b005b61011a6102f9565b6040516101279190610b99565b60405180910390f35b61014a60048036038101906101459190610bb2565b610320565b005b61016660048036038101906101619190610c32565b610394565b6040516101739190610d0c565b60405180910390f35b61019660048036038101906101919190610c32565b6103a8565b005b6101b260048036038101906101ad919061097b565b610425565b6040516101bf9190610d0c565b60405180910390f35b6101e260048036038101906101dd9190610d25565b610439565b005b5f6101ee826104bd565b9050919050565b6101fd610536565b8473ffffffffffffffffffffffffffffffffffffffff1663f242432a30868686866040518663ffffffff1660e01b815260040161023e959493929190610dbf565b5f604051808303815f87803b158015610255575f5ffd5b505af1158015610267573d5f5f3e3d5ffd5b505050505050505050565b8373ffffffffffffffffffffffffffffffffffffffff16632eb2c2d633308686866040518663ffffffff1660e01b81526004016102b3959493929190610ece565b5f604051808303815f87803b1580156102ca575f5ffd5b505af11580156102dc573d5f5f3e3d5ffd5b5050505050505050565b6102ee610536565b6102f75f6105bd565b565b5f5f5f9054906101000a900473ffffffffffffffffffffffffffffffffffffffff16905090565b8373ffffffffffffffffffffffffffffffffffffffff1663f242432a33308686866040518663ffffffff1660e01b8152600401610361959493929190610dbf565b5f604051808303815f87803b158015610378575f5ffd5b505af115801561038a573d5f5f3e3d5ffd5b5050505050505050565b5f63bc197c8160e01b905095945050505050565b6103b0610536565b8473ffffffffffffffffffffffffffffffffffffffff16632eb2c2d630868686866040518663ffffffff1660e01b81526004016103f1959493929190610ece565b5f604051808303815f87803b158015610408575f5ffd5b505af115801561041a573d5f5f3e3d5ffd5b505050505050505050565b5f63f23a6e6160e01b905095945050505050565b610441610536565b5f73ffffffffffffffffffffffffffffffffffffffff168173ffffffffffffffffffffffffffffffffffffffff16036104b1575f6040517f1e4fbdf70000000000000000000000000000000000000000000000000000000081526004016104a89190610b99565b60405180910390fd5b6104ba816105bd565b50565b5f7f4e2312e0000000000000000000000000000000000000000000000000000000007bffffffffffffffffffffffffffffffffffffffffffffffffffffffff1916827bffffffffffffffffffffffffffffffffffffffffffffffffffffffff1916148061052f575061052e8261067e565b5b9050919050565b61053e6106e7565b73ffffffffffffffffffffffffffffffffffffffff1661055c6102f9565b73ffffffffffffffffffffffffffffffffffffffff16146105bb5761057f6106e7565b6040517f118cdaa70000000000000000000000000000000000000000000000000000000081526004016105b29190610b99565b60405180910390fd5b565b5f5f5f9054906101000a900473ffffffffffffffffffffffffffffffffffffffff169050815f5f6101000a81548173ffffffffffffffffffffffffffffffffffffffff021916908373ffffffffffffffffffffffffffffffffffffffff1602179055508173ffffffffffffffffffffffffffffffffffffffff168173ffffffffffffffffffffffffffffffffffffffff167f8be0079c531659141344cd1fd0a4f28419497f9722a3daafe3b4186f6b6457e060405160405180910390a35050565b5f7f01ffc9a7000000000000000000000000000000000000000000000000000000007bffffffffffffffffffffffffffffffffffffffffffffffffffffffff1916827bffffffffffffffffffffffffffffffffffffffffffffffffffffffff1916149050919050565b5f33905090565b5f604051905090565b5f5ffd5b5f5ffd5b5f7fffffffff0000000000000000000000000000000000000000000000000000000082169050919050565b610733816106ff565b811461073d575f5ffd5b50565b5f8135905061074e8161072a565b92915050565b5f60208284031215610769576107686106f7565b5b5f61077684828501610740565b91505092915050565b5f8115159050919050565b6107938161077f565b82525050565b5f6020820190506107ac5f83018461078a565b92915050565b5f73ffffffffffffffffffffffffffffffffffffffff82169050919050565b5f6107db826107b2565b9050919050565b6107eb816107d1565b81146107f5575f5ffd5b50565b5f81359050610806816107e2565b92915050565b5f819050919050565b61081e8161080c565b8114610828575f5ffd5b50565b5f8135905061083981610815565b92915050565b5f5ffd5b5f5ffd5b5f601f19601f8301169050919050565b7f4e487b71000000000000000000000000000000000000000000000000000000005f52604160045260245ffd5b61088d82610847565b810181811067ffffffffffffffff821117156108ac576108ab610857565b5b80604052505050565b5f6108be6106ee565b90506108ca8282610884565b919050565b5f67ffffffffffffffff8211156108e9576108e8610857565b5b6108f282610847565b9050602081019050919050565b828183375f83830152505050565b5f61091f61091a846108cf565b6108b5565b90508281526020810184848401111561093b5761093a610843565b5b6109468482856108ff565b509392505050565b5f82601f8301126109625761096161083f565b5b813561097284826020860161090d565b91505092915050565b5f5f5f5f5f60a08688031215610994576109936106f7565b5b5f6109a1888289016107f8565b95505060206109b2888289016107f8565b94505060406109c38882890161082b565b93505060606109d48882890161082b565b925050608086013567ffffffffffffffff8111156109f5576109f46106fb565b5b610a018882890161094e565b9150509295509295909350565b5f67ffffffffffffffff821115610a2857610a27610857565b5b602082029050602081019050919050565b5f5ffd5b5f610a4f610a4a84610a0e565b6108b5565b90508083825260208201905060208402830185811115610a7257610a71610a39565b5b835b81811015610a9b5780610a87888261082b565b845260208401935050602081019050610a74565b5050509392505050565b5f82601f830112610ab957610ab861083f565b5b8135610ac9848260208601610a3d565b91505092915050565b5f5f5f5f60808587031215610aea57610ae96106f7565b5b5f610af7878288016107f8565b945050602085013567ffffffffffffffff811115610b1857610b176106fb565b5b610b2487828801610aa5565b935050604085013567ffffffffffffffff811115610b4557610b446106fb565b5b610b5187828801610aa5565b925050606085013567ffffffffffffffff811115610b7257610b716106fb565b5b610b7e8782880161094e565b91505092959194509250565b610b93816107d1565b82525050565b5f602082019050610bac5f830184610b8a565b92915050565b5f5f5f5f60808587031215610bca57610bc96106f7565b5b5f610bd7878288016107f8565b9450506020610be88782880161082b565b9350506040610bf98782880161082b565b925050606085013567ffffffffffffffff811115610c1a57610c196106fb565b5b610c268782880161094e565b91505092959194509250565b5f5f5f5f5f60a08688031215610c4b57610c4a6106f7565b5b5f610c58888289016107f8565b9550506020610c69888289016107f8565b945050604086013567ffffffffffffffff811115610c8a57610c896106fb565b5b610c9688828901610aa5565b935050606086013567ffffffffffffffff811115610cb757610cb66106fb565b5b610cc388828901610aa5565b925050608086013567ffffffffffffffff811115610ce457610ce36106fb565b5b610cf08882890161094e565b9150509295509295909350565b610d06816106ff565b82525050565b5f602082019050610d1f5f830184610cfd565b92915050565b5f60208284031215610d3a57610d396106f7565b5b5f610d47848285016107f8565b91505092915050565b610d598161080c565b82525050565b5f81519050919050565b5f82825260208201905092915050565b8281835e5f83830152505050565b5f610d9182610d5f565b610d9b8185610d69565b9350610dab818560208601610d79565b610db481610847565b840191505092915050565b5f60a082019050610dd25f830188610b8a565b610ddf6020830187610b8a565b610dec6040830186610d50565b610df96060830185610d50565b8181036080830152610e0b8184610d87565b90509695505050505050565b5f81519050919050565b5f82825260208201905092915050565b5f819050602082019050919050565b610e498161080c565b82525050565b5f610e5a8383610e40565b60208301905092915050565b5f602082019050919050565b5f610e7c82610e17565b610e868185610e21565b9350610e9183610e31565b805f5b83811015610ec1578151610ea88882610e4f565b9750610eb383610e66565b925050600181019050610e94565b5085935050505092915050565b5f60a082019050610ee15f830188610b8a565b610eee6020830187610b8a565b8181036040830152610f008186610e72565b90508181036060830152610f148185610e72565b90508181036080830152610f288184610d87565b9050969550505050505056fea26469706673582212203acbc748ff213089235c5f2f167d3c46c43f5a567396c913a941e50d14dbb7cb64736f6c634300081c0033",
  "linkReferences": {},
  "deployedLinkReferences": {},
  "immutableReferences": {},
  "inputSourceName": "project/contracts/SampleERC1155Receiver.sol",
  "buildInfoId": "solc-0_8_28-8896fe164fb094946cf9f1942503b8e69795f64e"
}